:020000040000FA
:0400000039EF1CF0C8
:100800000054656D70657261747572613A00252ED1
:10081000326600494E46004E414E00696E66006EDB
:09082000616E006C6600430000EB
:10082A00000E00017B6F000E7A6F30C08CF031C071
:10083A008DF032C08EF033C08FF08FBF29EF04F0F5
:10084A0027EF04F03FEF04F0000E7B6F010E7A6F82
:10085A008CC001F08DC002F08EC003F08FC004F08E
:10086A00B7EC1BF001C08CF002C08DF003C08EF013
:10087A0004C08FF0000E0001936F000E926FB6C095
:10088A007EF0B7C07FF07A517B11D8A44FEF04F005
:10089A0051EF04F058EF04F0BAA556EF04F058EF00
:1008AA0004F072EF04F07A517B11D8A45FEF04F0E0
:1008BA0061EF04F067EF04F0000E616F2B0E606FBA
:1008CA006BEF04F0000E616F2D0E606F60C000F1D7
:1008DA00924B932B7E07D8A07F078CC001F08DC066
:1008EA0002F08EC003F08FC004F063EC16F001042E
:1008FA000210D8A483EF04F085EF04F0DCEF04F0D3
:10090A00BF0E356EFF0E366E3450376E386A35506C
:10091A0037263650382238500AE11A0E375CD8A0EA
:10092A0099EF04F09CEF04F0010E9DEF04F0000E25
:10093A000001626F636B62516311D8B4A7EF04F0D0
:10094A00A9EF04F0B7EF04F0000E9225016E010E34
:10095A009321026E130E036E080E046EA8EC1AF0B1
:10096A00C3EF04F0000E9225016E010E9321026E70
:10097A001B0E036E080E046EA8EC1AF00001FD0EA1
:10098A007E27FF0E7F232EC011F02FC012F0000E1B
:10099A00136E010E146E7EC015F07FC016F02BEC9C
:1009AA0018F011C02EF012C02FF040EF0AF08CC0E0
:1009BA0001F08DC002F08EC003F08FC004F063EC2A
:1009CA0016F001500210D8A4EDEF04F0EFEF04F096
:1009DA002FEF05F0BF0E356EFF0E366E3450376EB0
:1009EA00386A355037263650382238500AE11A0EFE
:1009FA00375CD8A003EF05F006EF05F0010E07EF0C
:100A0A0005F0000E0001646F656B64516511D8B47E
:100A1A0011EF05F013EF05F021EF05F0000E922516
:100A2A00016E010E9321026E170E036E080E046EFC
:100A3A00A8EC1AF0C3EF04F0000E9225016E010E25
:100A4A009321026E1F0E036E080E046EA8EC1AF0B4
:100A5A00C3EF04F0000E0001946F000E956F800E34
:100A6A00966F3F0E976F000E916F000E906F8CC0BD
:100A7A0001F08DC002F08EC003F08FC004F0000EAA
:100A8A00056E000E066E000E076E000E086E48EC2C
:100A9A0019F0D8B053EF05F055EF05F0D8EF05F08F
:100AAA0074EF05F094C001F095C002F096C003F00F
:100ABA0097C004F0000E056E000E066E200E076E3B
:100ACA00410E086ED1EC0EF001C094F002C095F010
:100ADA0003C096F004C097F00001904B912B8CC094
:100AEA001AF08DC01BF08EC01CF08FC01DF0000ED6
:100AFA00056E000E066E200E076E410E086E94C03B
:100B0A0001F095C002F096C003F097C004F0D1EC52
:100B1A000EF001C01EF002C01FF003C020F004C096
:100B2A0021F0E1EC15F0D8B09DEF05F09FEF05F04C
:100B3A0057EF05F0BFEF05F094C001F095C002F041
:100B4A0096C003F097C004F0000E056E000E066E04
:100B5A00200E076E410E086EE6EC10F001C094F00C
:100B6A0002C095F003C096F004C097F00001900708
:100B7A00D8A091078CC01AF08DC01BF08EC01CF053
:100B8A008FC01DF094C01EF095C01FF096C020F0D3
:100B9A0097C021F0E1EC15F0D8A0D6EF05F0D8EF18
:100BAA0005F0A1EF05F034C007F0086A78EC1AF0F6
:100BBA0007500001816F81C080F0670E8119D8A4A7
:100BCA00E9EF05F0EBEF05F011EF06F0B851B911B6
:100BDA00D8A4F2EF05F0F4EF05F0F8EF05F0000EF7
:100BEA00B96F010EB86FB9BF05EF06F0B95106E14A
:100BFA00B805D8B003EF06F005EF06F00BEF06F0E4
:100C0A00000E7D6F060E7C6F1AEF06F0B8C07CF0FE
:100C1A00B9C07DF01AEF06F0B9BF16EF06F018EF6B
:100C2A0006F005EF06F00BEF06F0670E8119D8A45F
:100C3A0021EF06F023EF06F052EF06F091AF31EF05
:100C4A0006F0FC0E905DFF0E9159D8A02FEF06F02A
:100C5A0031EF06F050EF06F0FF0E356EFF0E366EDE
:100C6A007CC037F07DC038F03550372636503822F0
:100C7A009051375C3850800A396E9151800A395840
:100C8A00D8A04AEF06F04CEF06F050EF06F0660ED9
:100C9A00806F52EF06F0650E806F7CC072F07DC0E7
:100CAA0073F0670E8119D8A45DEF06F05FEF06F0C6
:100CBA006FEF06F0660E8019D8A466EF06F068EFAB
:100CCA0006F071EF06F091BF6FEF06F06DEF06F0D8
:100CDA0071EF06F0724B732B660E8019D8A478EF69
:100CEA0006F07AEF06F09AEF06F091BF81EF06F070
:100CFA007FEF06F08DEF06F0000E946F000E956FF1
:100D0A00800E966F3F0E976F000E916F000E906FD8
:100D1A00670E8119D8B494EF06F096EF06F09AEFB1
:100D2A0006F09051722791517323000E8B6F000EBB
:100D3A008A6F8CC082F08DC083F08EC084F08FC021
:100D4A0085F094C074F095C075F096C076F097C09F
:100D5A0077F02BEF07F082C001F083C002F084C065
:100D6A0003F085C004F094C005F095C006F096C063
:100D7A0007F097C008F0E6EC10F001C01AF002C0C4
:100D8A001BF003C01CF004C01DF0B3EC12F01AC033
:100D9A0086F01BC087F01CC088F01DC089F086C091
:100DAA0001F087C002F088C003F089C004F05EEC4D
:100DBA0015F001C078F002C079F082C01AF083C041
:100DCA001BF084C01CF085C01DF094C005F095C0CE
:100DDA0006F096C007F097C008F086C001F087C0F9
:100DEA0002F088C003F089C004F0D1EC0EF001C013
:100DFA001EF002C01FF003C020F004C021F056EC20
:100E0A001BF01AC082F01BC083F01CC084F01DC006
:100E1A0085F094C001F095C002F096C003F097C027
:100E2A0004F0000E056E000E066E200E076E410ECF
:100E3A00086EE6EC10F001C094F002C095F003C011
:100E4A0096F004C097F000018A4B8B2B72518A5D91
:100E5A008B51800A356E7351800A3558D8A038EF05
:100E6A0007F03AEF07F0B0EF06F094C001F095C032
:100E7A0002F096C003F097C004F0000E056E000E53
:100E8A00066EA00E076E400E086ED1EC0EF001C081
:100E9A0086F002C087F003C088F004C089F082C0DF
:100EAA001AF083C01BF084C01CF085C01DF086C0F8
:100EBA001EF087C01FF088C020F089C021F0E1EC45
:100ECA0015F0D8B06BEF07F06DEF07F078EF07F089
:100EDA00000E0001866F000E876F000E886F000EED
:100EEA00896FA1EF07F082C001F083C002F084C0CD
:100EFA0003F085C004F086C005F087C006F088C0FC
:100F0A0007F089C008F048EC19F0D8A08FEF07F075
:100F1A0091EF07F0A1EF07F0000178B197EF07F022
:100F2A0099EF07F0A1EF07F0000E866F000E876FAA
:100F3A00000E886F000E896F8CC001F08DC002F020
:100F4A008EC003F08FC004F086C005F087C006F09B
:100F5A0088C007F089C008F041EC0AF001C082F0AD
:100F6A0002C083F003C084F004C085F082C01AF086
:100F7A0083C01BF084C01CF085C01DF0000E056EF6
:100F8A00000E066E200E076E410E086E74C001F048
:100F9A0075C002F076C003F077C004F0D1EC0EF011
:100FAA0001C01EF002C01FF003C020F004C021F0EF
:100FBA00E1EC15F0D8A0E4EF07F0E6EF07F00FEF49
:100FCA0008F00001904B912B74C001F075C002F03B
:100FDA0076C003F077C004F0000E056E000E066EB0
:100FEA00200E076E410E086ED1EC0EF001C074F0AF
:100FFA0002C075F003C076F004C077F0660E0001F7
:10100A008019D8A40BEF08F00DEF08F00FEF08F0E5
:10101A00724B732B74C094F075C095F076C096F03D
:10102A0077C097F0650E00018019D8B41FEF08F059
:10103A0021EF08F027EF08F090C070F091C071F02E
:10104A002BEF08F0000E716F000E706F000E6F6FBD
:10105A00000E6E6F000E6D6F000E6C6F000E8B6FC0
:10106A00000E8A6F26EF09F082C001F083C002F0F9
:10107A0084C003F085C004F094C005F095C006F062
:10108A0096C007F097C008F0E6EC10F001C01AF01D
:10109A0002C01BF003C01CF004C01DF0B3EC12F038
:1010AA001AC086F01BC087F01CC088F01DC089F0EA
:1010BA0086C001F087C002F088C003F089C004F03E
:1010CA005EEC15F001C078F002C079F00001BAB9FF
:1010DA0071EF08F073EF08F090EF08F0785179118A
:1010EA00D8A47AEF08F07CEF08F090EF08F0670ECA
:1010FA008119D8A483EF08F085EF08F090EF08F083
:10110A0071BF8CEF08F08AEF08F090EF08F06C4B93
:10111A006D2BDAEF08F06E516F11D8A497EF08F033
:10112A0099EF08F0C3EF08F071BFA0EF08F09EEF47
:10113A0008F0C3EF08F0000E9225D96E010E932134
:10114A00DA6E2E0EDF6E924B932B7E07D8A07F07A6
:10115A00000E6F6F010E6E6FC3EF08F0000E92253E
:10116A00D96E010E9321DA6E300EDF6E924B932BFD
:10117A007E07D8A07F076C07D8A06D076C516D1148
:10118A00D8A4CAEF08F0CCEF08F0B3EF08F0000ECD
:10119A009225D96E010E9321DA6E7851300FDF6EE7
:1011AA00924B932B7E07D8A07F0782C01AF083C088
:1011BA001BF084C01CF085C01DF094C005F095C0DA
:1011CA0006F096C007F097C008F086C001F087C005
:1011DA0002F088C003F089C004F0D1EC0EF001C01F
:1011EA001EF002C01FF003C020F004C021F056EC2C
:1011FA001BF01AC082F01BC083F01CC084F01DC013
:10120A0085F094C001F095C002F096C003F097C033
:10121A0004F0000E056E000E066E200E076E410EDB
:10122A00086EE6EC10F001C094F002C095F003C01D
:10123A0096F004C097F000017007D8A071078A4B96
:10124A008B2B72518A5D8B51800A356E7351800ADD
:10125A003558D8B033EF09F035EF09F043EF09F00C
:10126A0093BF41EF09F0935109E14B0E925DD8A06B
:10127A0041EF09F043EF09F039EF08F06E516F11B1
:10128A00D8A44AEF09F04CEF09F05DEF09F0BAA9CA
:10129A0051EF09F053EF09F05DEF09F0000E9225C6
:1012AA00D96E010E9321DA6E2E0EDF6E924B932BBE
:1012BA00000E9225D96E010E9321DA6E000EDF6EB2
:1012CA00650E8019D8A46CEF09F06EEF09F0C8EF2B
:1012DA0004F0000E8B6F4F0E8A6F000E8A25D96EAE
:1012EA00010E8B21DA6E000EDF6E000E7B6F000E90
:1012FA007A6F91BF85EF09F083EF09F08DEF09F05E
:10130A00000E7B6F010E7A6F906D911FD8B0912BF2
:10131A00000E7D6F020E7C6FBEEF09F08A07D8A01F
:10132A008B07000E8A25D96E010E8B21DA6E90C0CA
:10133A0001F091C002F0000E046E0A0E036EF0EC8A
:10134A0018F00150300FDF6E90C001F091C002F02A
:10135A00000E046E0A0E036E8EEC18F001C090F0B7
:10136A0002C091F000017C07D8A07D077E07D8A0B3
:10137A007F0790519111D8A4C5EF09F0C7EF09F082
:10138A0093EF09F07DBFD4EF09F07D5106E17C05AA
:10139A00D8B0D2EF09F0D4EF09F093EF09F08A0739
:1013AA00D8A08B077A517B11D8A4DEEF09F0E0EFC1
:1013BA0009F0E6EF09F0000E676F2B0E666FEAEF91
:1013CA0009F0000E676F2D0E666F000E8A25D96E22
:1013DA00010E8B21DA6E66C0DFFF7E07D8A07F0779
:1013EA008A07D8A08B07BF0E356EFF0E366E3450B3
:1013FA00376E386A355037263650382238500AE167
:10140A001A0E375CD8A00CEF0AF00FEF0AF0010EA3
:10141A0010EF0AF0000E6A6F6B6B6A516B11D8A459
:10142A0019EF0AF01BEF0AF021EF0AF0000E696FBC
:10143A00650E686F25EF0AF0000E696F450E686F3A
:10144A00000E8A25D96E010E8B21DA6E68C0DFFF85
:10145A007E07D8A07F07000E9225016E010E932108
:10146A00026E000E8A25036E010E8B21046EA8EC13
:10147A001AF0C8EF04F012000450800B0D6E0450ED
:10148A0004240F6E03AE4CEF0AF04EEF0AF04FEF52
:10149A000AF00F800F50D8B455EF0AF057EF0AF050
:1014AA006CEF0AF00F28D8A45DEF0AF05FEF0AF09C
:1014BA0067EF0AF0000E016E000E026E000E036E58
:1014CA00000E046E038E000E046E74EF0AF0000E16
:1014DA00016E000E026E000E036E000E046E0850BE
:1014EA00800B0E6E0D500E18D8B47EEF0AF080EF06
:1014FA000AF081EF0AF00D8C085008240E6E07AE30
:10150A0089EF0AF08BEF0AF08CEF0AF00E800E508A
:10151A00D8B492EF0AF094EF0AF0A9EF0AF00E2875
:10152A00D8A49AEF0AF09CEF0AF0A4EF0AF0000E92
:10153A00056E000E066E000E076E000E086E078E10
:10154A00000E086EB1EF0AF0000E056E000E066E70
:10155A00000E076E000E086E0F500E5CD8B0B8EF82
:10156A000AF0BAEF0AF0E1EF0AF00DACBFEF0AF0A9
:10157A00C1EF0AF0C3EF0AF0800E0D1A0FC010F087
:10158A000EC00FF010C00EF001C010F005C001F03F
:10159A0010C005F002C010F006C002F010C006F03C
:1015AA0003C010F007C003F010C007F004C010F029
:1015BA0008C004F010C008F0000E106E0F500EC0E4
:1015CA0009F00A6A095E000E0A5A0ABEF6EF0AF024
:1015DA000A5009E11A0E095CD8A0F6EF0AF0F8EFF2
:1015EA000AF02FEF0BF00150021003100410D8A4D8
:1015FA0001EF0BF004EF0BF0010E05EF0BF0000EFC
:10160A00106E000E016E000E026E000E036E000ECA
:10161A00046E0EC00FF038EF0BF010A017EF0BF0AE
:10162A0019EF0BF01FEF0BF0D89010300109106E74
:10163A0021EF0BF0D890103201A026EF0BF028EF23
:10164A000BF029EF0BF0108E04340432033202320D
:10165A0001320F2A0E500F5CD8A036EF0BF038EF8C
:10166A000BF012EF0BF00DBC3DEF0BF03FEF0BF060
:10167A007FEF0BF00F50D8A445EF0BF047EF0BF0BC
:10168A0051EF0BF0000E016E000E026E000E036E9B
:10169A00000E046EA0EF0CF005500126065002223F
:1016AA00075003220850042204A05EEF0BF060EFFB
:1016BA000BF00CEF0CF010A065EF0BF067EF0BF0DE
:1016CA006DEF0BF0D89010300109106E6FEF0BF030
:1016DA00D890103201A074EF0BF076EF0BF077EF91
:1016EA000BF0108E043404320332023201320F2A14
:1016FA000CEF0CF00550015C0650025807500358D5
:10170A000450800A096E0850800A0958D8B090EF30
:10171A000BF092EF0BF0BDEF0BF00150055C096E78
:10172A00025006580A6E035007580B6E04500858A8
:10173A000C6EFF0E0924016EFF0E0A20026EFF0EC8
:10174A000B20036EFF0E0C20046E800E0D1A106C17
:10175A001050D8A4B3EF0BF0B5EF0BF0C5EF0BF0B8
:10176A00010E0126000E022203220422C5EF0BF00D
:10177A000550015E0650025A0750035A0850045A8F
:10178A000150021003100410D8A4CEEF0BF0D0EFD2
:10179A000BF005EF0CF01050D8A4D6EF0BF0D8EFF1
:1017AA000BF005EF0CF0000E016E000E026E000E3B
:1017BA00036E000E046EA0EF0CF0D89001360236CC
:1017CA000336043610AEECEF0BF0EEEF0BF0EFEF52
:1017DA000BF0018010A0F4EF0BF0F6EF0BF0FAEF2C
:1017EA000BF0D8801036FCEF0BF0D89010360F5063
:1017FA00D8B402EF0CF004EF0CF005EF0CF00F0672
:10180A0003AE0AEF0CF00CEF0CF0E2EF0BF0000E57
:10181A000E6E10AE13EF0CF015EF0CF02DEF0CF06E
:10182A0010C009F07F0E0916D8B41EEF0CF020EF95
:10183A000CF024EF0CF0010E0E6E2DEF0CF001A04F
:10184A0029EF0CF02BEF0CF02DEF0CF020EF0CF041
:10185A000E50D8B433EF0CF035EF0CF060EF0CF00B
:10186A00010E0126000E02220322042204A040EFE8
:10187A000CF042EF0CF060EF0CF001C009F002C06E
:10188A000AF003C00BF004C00CF00C340C320B321B
:10189A000A32093209C001F00AC002F00BC003F093
:1018AA000CC004F00F28D8B45DEF0CF05FEF0CF019
:1018BA0060EF0CF00F2A0F28D8B466EF0CF068EF2F
:1018CA000CF070EF0CF00F50D8A46EEF0CF070EF24
:1018DA000CF082EF0CF0000E016E000E026E000E8C
:1018EA00036E000E046E0F50D8A47EEF0CF080EF4A
:1018FA000CF082EF0CF0000E0D6E0FA087EF0CF0CB
:10190A0089EF0CF08CEF0CF0038E8DEF0CF0039E38
:10191A00D8900F30046E0DAE95EF0CF097EF0CF0E7
:10192A0098EF0CF0048E01C001F002C002F003C06F
:10193A0003F004C004F012003CC0D9FF3DC0DAFF36
:10194A00DECFF6FFDDCFF7FF0800F550250AD8A451
:10195A00B1EF0CF0B3EF0CF0B5EF0EF03CC0D9FFCD
:10196A003DC0DAFFDE2A000EDD22000E0001B76F4D
:10197A00000EB66FB6C0BAF0B7C0BBF0B869B969A5
:10198A003CC0D9FF3DC0DAFFDECFF6FFDDCFF7FF5F
:10199A000800F5502E0AD8A4D5EF0CF0D7EF0CF0BA
:1019AA0054EF0DF0000EB96F000EB86F3CC0D9FFAE
:1019BA003DC0DAFFDE2A000EDD223CC0D9FF3DC061
:1019CA00DAFFDECFF6FFDDCFF7FF0800F5502A0A6F
:1019DA00D8A4F2EF0CF0F4EF0CF011EF0DF03CC0CC
:1019EA00D9FF3DC0DAFFDE2A000EDD223EC0D9FF54
:1019FA003FC0DAFFDFCF40F0020EDE26DFCF41F034
:101A0A00000EDD2240C0D9FF41C0DAFFDECFB8F0B8
:101A1A00DDCFB9F054EF0DF03CC0D9FF3DC0DAFF7D
:101A2A00DECF08F0DDCF09F096EC14F008C0B8F06C
:101A3A0009C0B9F028EF0DF03CC0D9FF3DC0DAFF6C
:101A4A00DE2A000EDD22D00E406EFF0E416E3CC033
:101A5A00D9FF3DC0DAFFDECFF6FFDDCFF7FF080082
:101A6A00F550426E436A4050422641504322435049
:101A7A000AE10A0E425CD8A045EF0DF048EF0DF0DE
:101A8A00010E49EF0DF0000E446E456A44504510B0
:101A9A00D8A452EF0DF054EF0DF021EF0DF03CC039
:101AAA00D9FF3DC0DAFFDECFF6FFDDCFF7FF080032
:101ABA00F550076E086A78EC1AF007504C6E4C50D5
:101ACA00D8B46AEF0DF06CEF0DF0A4EF0DF03CC046
:101ADA00D9FF3DC0DAFFDECF40F0DDCF41F0010E85
:101AEA004026000E412240C0F6FF41C0F7FF080021
:101AFA00F550076E086A78EC1AF007504D6E4D5093
:101B0A00D8B48AEF0DF08CEF0DF0A4EF0DF03CC0C5
:101B1A00D9FF3DC0DAFFDECF40F0DDCF41F0020E43
:101B2A004026000E412240C0F6FF41C0F7FF0800E0
:101B3A00F550076E086A78EC1AF007504E6E660E7A
:101B4A004C18D8A4ABEF0DF0ADEF0DF0EDEF0DF0A2
:101B5A003CC0D9FF3DC0DAFFDECFF6FFDDCFF7FF8D
:101B6A000800F5CF4FF03CC0D9FF3DC0DAFFDE2AAE
:101B7A00000EDD223EC0D9FF3FC0DAFFDFCF40F0C2
:101B8A00040EDE26DFCF41F0000EDD2240C0D9FF71
:101B9A0041C0DAFFDECF48F0DECF49F0DECF4AF0AF
:101BAA00DECF4BF03AC02EF03BC02FF048C030F0E9
:101BBA0049C031F04AC032F04BC033F04FC034F064
:101BCA0015EC04F02EC03AF02FC03BF0D0EF0EF027
:101BDA004C0E016E000E026E230E036E080E046E8A
:101BEA00000E066E020E056E5BEC17F00150021035
:101BFA00D8A402EF0EF004EF0EF07FEF0EF03CC017
:101C0A00D9FF3DC0DAFFDECF40F0DDCF41F0010E53
:101C1A004026000E412240C0F6FF41C0F7FF0800EF
:101C2A00F5CF4FF0BF0E406EFF0E416E3CC0D9FF9C
:101C3A003DC0DAFFDECFF6FFDDCFF7FF0800F55033
:101C4A00426E436A405042264150432243500AE1C1
:101C5A001A0E425CD8A034EF0EF037EF0EF0010EE8
:101C6A0038EF0EF0000E466E476A46504710D8B459
:101C7A0041EF0EF043EF0EF05DEF0EF03EC0D9FFDC
:101C8A003FC0DAFFDFCF40F0040EDE26DFCF41F09F
:101C9A00000EDD2240C0D9FF41C0DAFFDECF48F096
:101CAA00DECF49F0DECF4AF0DECF4BF075EF0EF013
:101CBA003EC0D9FF3FC0DAFFDFCF40F0040EDE2678
:101CCA00DFCF41F0000EDD2240C0D9FF41C0DAFF6C
:101CDA00DECF48F0DECF49F0DECF4AF0DECF4BF060
:101CEA00020E3CC0D9FF3DC0DAFFDE26000EDD221F
:101CFA00D7EF0DF03CC0D9FF3DC0DAFFDECFF6FFCB
:101D0A00DDCFF7FF0800F550250AD8A48FEF0EF0B3
:101D1A0091EF0EF0A8EF0EF03CC0D9FF3DC0DAFFFC
:101D2A00DE2A000EDD22000E026E250E016E3AC07A
:101D3A0003F03BC004F0C6EC17F0000E3B6E010E38
:101D4A003A6ED0EF0EF03CC0D9FF3DC0DAFFDE2A72
:101D5A00000EDD22000E3B6E000E3A6ED0EF0EF042
:101D6A003CC0D9FF3DC0DAFFDECFF6FFDDCFF7FF7B
:101D7A000800F550016E026A3AC003F03BC004F055
:101D8A00C6EC17F03CC0D9FF3DC0DAFFDE2A000ED0
:101D9A00DD22A2EF0EF012000450800B0D6E0450EB
:101DAA000424136E03AEDCEF0EF0DEEF0EF0DFEF6D
:101DBA000EF013801350D8B4E5EF0EF0E7EF0EF0F3
:101DCA00FAEF0EF01328D8A4EDEF0EF0EFEF0EF0B5
:101DDA00F7EF0EF0000E016E000E026E000E036E9B
:101DEA00000E046E038E02EF0FF0000E016E000E5D
:101DFA00026E000E036E000E046E0850800B0D1A60
:101E0A0008500824126E07AE0DEF0FF00FEF0FF017
:101E1A0010EF0FF012801250D8B416EF0FF018EF2F
:101E2A000FF02BEF0FF01228D8A41EEF0FF020EFBF
:101E3A000FF028EF0FF0000E056E000E066E000E72
:101E4A00076E000E086E078E33EF0FF0000E056E58
:101E5A00000E066E000E076E000E086E1250D8B401
:101E6A0039EF0FF03BEF0FF043EF0FF01350D8A408
:101E7A0041EF0FF043EF0FF04DEF0FF0000E016E40
:101E8A00000E026E000E036E000E046EE5EF10F0F7
:101E9A0007500102F3CF18F0F4CF19F018500E6E64
:101EAA000F6A106A116A1950146E156A166A176A4F
:101EBA0006500202F3CF18F0F4CF19F018500E268C
:101ECA00000E0F221022112219501426000E15227C
:101EDA001622172205500302F3CF18F0F4CF19F097
:101EEA0018500E26000E0F22102211221950142605
:101EFA00000E15221622172210C011F00FC010F082
:101F0A000EC00FF00E6A05500202F3CF18F0F4CF9C
:101F1A0019F018500E2619500F22000E1022000E2A
:101F2A00112206500102F3CF18F0F4CF19F018501D
:101F3A000E2619500F22000E1022000E112210C078
:101F4A0011F00FC010F00EC00FF00E6A055001021A
:101F5A00F3CF18F0F4CF19F018500E2619500F22AB
:101F6A00000E1022000E112207500202F3CF18F0C1
:101F7A00F4CF19F01850142619501522000E162203
:101F8A00000E172206500302F3CF18F0F4CF19F00F
:101F9A001850142619501522000E1622000E172268
:101FAA0007500302F3CF18F0F4CF19F01850096E56
:101FBA0019500A6E0B6A0C6A0BC00CF00AC00BF0BF
:101FCA0009C00AF0096A095014260A5015220B5052
:101FDA0016220C5017220EC009F00FC00AF010C0CA
:101FEA000BF011C00CF0190E00EF10F0D8900C3263
:101FFA000B320A320932E82EFBEF0FF00950142691
:10200A000A5015220B5016220C50172210C011F03C
:10201A000FC010F00EC00FF00E6A125013C009F074
:10202A000A6A0926000E0A22820E0924186EFF0E79
:10203A000A20196E36EF10F0D89014361536163677
:10204A00173611AE2BEF10F02DEF10F02EEF10F027
:10205A001480D8900E360F36103611361806D8A0CE
:10206A00190616AE3BEF10F03DEF10F021EF10F01D
:10207A00000E126E11AE44EF10F046EF10F06AEF48
:10208A0010F0FF0E0E14096EFF0E0F140A6EFF0EEB
:10209A0010140B6E7F0E11140C6E09500A100B10DF
:1020AA000C10D8B45BEF10F05DEF10F061EF10F098
:1020BA00010E126E6AEF10F014A066EF10F068EFCE
:1020CA0010F06AEF10F05DEF10F01250D8B470EF14
:1020DA0010F072EF10F096EF10F0010E1426000EB9
:1020EA0015221622172217A07DEF10F07FEF10F0AD
:1020FA0096EF10F014C009F015C00AF016C00BF0E4
:10210A0017C00CF00C340C320B320A32093209C0F7
:10211A0014F00AC015F00BC016F00CC017F0184ADC
:10212A00192A19BEA1EF10F0195008E11828D8A0F1
:10213A00A1EF10F0A3EF10F0ADEF10F0000E146E47
:10214A00000E156E800E166E7F0E176EDBEF10F006
:10215A0019BEBAEF10F0195006E11804D8B0B8EF5A
:10216A0010F0BAEF10F0C6EF10F0000E146E000E69
:10217A00156E000E166E000E176E000E0D6EDBEF5A
:10218A0010F018C013F0FF0E1416FF0E15167F0E6E
:10219A001616000E171613A0D5EF10F0D7EF10F091
:1021AA00D8EF10F0168ED8901330176E0D50171204
:1021BA0014C001F015C002F016C003F017C004F0F5
:1021CA0012000450800B116E04500424186E03AEE2
:1021DA00F1EF10F0F3EF10F0F4EF10F01880185050
:1021EA00D8B4FAEF10F0FCEF10F011EF11F0182844
:1021FA00D8A402EF11F004EF11F00CEF11F0000E69
:10220A00016E000E026E000E036E000E046E038E47
:10221A00000E046E19EF11F0000E016E000E026E30
:10222A00000E036E000E046E0850800B111A08503F
:10223A000824196E07AE24EF11F026EF11F027EFEC
:10224A0011F019801950D8B42DEF11F02FEF11F0B9
:10225A0044EF11F01928D8A435EF11F037EF11F037
:10226A003FEF11F0000E056E000E066E000E076EAF
:10227A00000E086E078E000E086E4CEF11F0000E6D
:10228A00056E000E066E000E076E000E086E0550F3
:10229A00061007100810D8A455EF11F057EF11F0E7
:1022AA006FEF11F0000E016E000E026E000E036E4B
:1022BA00000E046E800E03127F0E041211500412D7
:1022CA0001C001F002C002F003C003F004C004F030
:1022DA00B2EF12F01850D8A475EF11F077EF11F0A1
:1022EA0081EF11F0000E016E000E026E000E036EF9
:1022FA00000E046EB2EF12F0195018C009F00A6A03
:10230A00095E000E0A5A7F0E0924126E000E0A2078
:10231A00136E01C00DF002C00EF003C00FF004C02E
:10232A0010F0000E016E000E026E000E036E000E1B
:10233A00046E000E146E000E156E000E166E000E60
:10234A00176E000E196EE2EF11F01950D8B4B0EF03
:10235A0011F0B2EF11F0C9EF11F0D8900D360E3628
:10236A000F361036D890013602360336043617AEC9
:10237A00C1EF11F0C3EF11F0C4EF11F00180D89052
:10238A00143615361636173605500D5C06500E589B
:10239A0007500F5808501058D8A0D6EF11F0D8EFB0
:1023AA0011F0E1EF11F0178C05500D5E06500E5A30
:1023BA0007500F5A0850105A192A190E1964E8EFD3
:1023CA0011F0EAEF11F0AAEF11F00D500E100F10F4
:1023DA001010D8B4F3EF11F0F5EF11F00DEF12F081
:1023EA0014800DEF12F0D890013602360336043607
:1023FA0017AE02EF12F004EF12F005EF12F00180AF
:10240A00D89014361536163617361206D8A0130683
:10241A0003AE12EF12F014EF12F0F8EF11F0000E03
:10242A00196E17AE1BEF12F01DEF12F041EF12F00A
:10243A00FF0E1414096EFF0E15140A6EFF0E161401
:10244A000B6E7F0E17140C6E09500A100B100C102D
:10245A00D8B432EF12F034EF12F038EF12F0010E66
:10246A00196E41EF12F001A03DEF12F03FEF12F0AA
:10247A0041EF12F034EF12F01950D8B447EF12F0CE
:10248A0049EF12F06DEF12F0010E0126000E022242
:10249A000322042204A054EF12F056EF12F06DEF5B
:1024AA0012F001C009F002C00AF003C00BF004C028
:1024BA000CF00C340C320B320A32093209C001F02A
:1024CA000AC002F00BC003F00CC004F0124A132A2F
:1024DA0013BE78EF12F0135008E11228D8A078EF53
:1024EA0012F07AEF12F085EF12F0000E136E1268F6
:1024FA00000E016E000E026E000E036E000E046ED8
:10250A0013BE92EF12F0135006E11204D8B090EF06
:10251A0012F092EF12F0A0EF12F0000E136E000EFE
:10252A00126E000E016E000E026E000E036E000E99
:10253A00046E000E116E12C018F018A0A7EF12F068
:10254A00A9EF12F0ACEF12F0038EADEF12F0039E7A
:10255A00D8901830046E63EF11F01200ACC02AF064
:10256A00ADC02BF0AEC02CF0AFC02DF01AC02AF0CF
:10257A001BC02BF01CC02CF01DC02DF0810E1E6E4E
:10258A00FF0E1F6E2AC020F02BC021F02CC022F0B3
:10259A002DC023F0180ED7EF12F0D8902332223232
:1025AA0021322032E82ED2EF12F020501E24286E5B
:1025BA00000E1F20296E29BEECEF12F0295009E106
:1025CA00170E285CD8A0ECEF12F0EEEF12F0F8EF3D
:1025DA0012F01AC01AF01BC01BF01CC01CF01DC060
:1025EA001DF0BBEF13F029BEFDEF12F0FFEF12F062
:1025FA006FEF13F028C01EF0FF0E1F6EFF0E206E45
:10260A007F0E216E000E226E1E660EEF13F016EF7D
:10261A0013F022342232213220321F321E2E09EFC9
:10262A0013F01FC024F020C025F021C026F022C0DC
:10263A0027F024502A141E6E25502B141F6E265084
:10264A002C14206E27502D14216E1E501F1020109E
:10265A002110D8A433EF13F035EF13F037EF13F04E
:10266A00EEEF12F02AC01EF02BC01FF02CC020F093
:10267A002DC021F0200E47EF13F0D89021322032DE
:10268A001F321E32E82E42EF13F01E501F10201088
:10269A002110D8B453EF13F055EF13F05DEF13F098
:1026AA0024502A2625502B2226502C2227502D2210
:1026BA00241C1E6E251C1F6E261C206E271C216ED4
:1026CA001E502A161F502B1620502C1621502D163C
:1026DA00B3EF13F02AC01EF02BC01FF02CC020F05D
:1026EA002DC021F0200E7FEF13F0D8902132203236
:1026FA001F321E32E82E7AEF13F01E501F102010E0
:10270A002110D8A48BEF13F08DEF13F097EF13F08D
:10271A00000E2A6E000E2B6E000E2C6E000E2D6E11
:10272A00B3EF13F0D8902A341E6E2B341F6E2C345C
:10273A00206E2D34216E1E501F1020102110D8B487
:10274A00A9EF13F0ABEF13F0B3EF13F0000E2A6EFC
:10275A00000E2B6E800E2C6EBF0E2D6E2AC01AF044
:10276A002BC01BF02CC01CF02DC01DF01200116EE6
:10277A001150D8B4C3EF13F0C5EF13F0E7EF13F01D
:10278A000CBECCEF13F0CAEF13F0E7EF13F009C059
:10279A000DF00AC00EF00BC00FF00CC010F00D1EA9
:1027AA000E1E0F1E101E0D2A000E0E220F221022C0
:1027BA000DC013F00EC014F00FC015F010C016F0C3
:1027CA00EFEF13F009C013F00AC014F00BC015F0B4
:1027DA000CC016F009500A100B100C10D8A4F8EF10
:1027EA0013F0FAEF13F004EF14F0000E096E000E66
:1027FA000A6E000E0B6E000E0C6E95EF14F0960E1C
:10280A00126E0EEF14F0122AD890163215321432C4
:10281A001332000E13140D6E000E14140E6E000EF9
:10282A0015140F6EFE0E1614106E0D500E100F10AA
:10283A001010D8A423EF14F025EF14F008EF14F0C9
:10284A0033EF14F0122A010E1326000E1422152259
:10285A001622D8901632153214321332000E13147F
:10286A000D6E000E14140E6E000E15140F6EFF0E70
:10287A001614106E0D500E100F101010D8A448EF39
:10288A0014F04AEF14F027EF14F052EF14F0120686
:10289A00D890133614361536163615BE57EF14F07F
:1028AA0059EF14F061EF14F0020E12605FEF14F0AA
:1028BA0061EF14F04CEF14F012B066EF14F068EF09
:1028CA0014F069EF14F0159ED890123212C00DF070
:1028DA000E6A0F6A106A0DC010F00F6A0E6A0D6A4E
:1028EA000D5013120E5014120F50151210501612CA
:1028FA001150D8B483EF14F085EF14F08DEF14F073
:10290A000CBE8CEF14F08AEF14F08DEF14F0168ED3
:10291A0013C009F014C00AF015C00BF016C00CF071
:10292A001200000E166E000E156E000E0F6E000ECF
:10293A000E6EA2EF14F0084A092A010E146E08C09E
:10294A00F6FF09C0F7FF0800F550200AD8B4B0EF27
:10295A0014F0B2EF14F0CFEF14F0F70E0A6EFF0E78
:10296A000B6E08C0F6FF09C0F7FF0800F5500C6EA1
:10297A000D6A0A500C260B500D220D5009E1050E66
:10298A000C5CD8A0CBEF14F0CDEF14F0CFEF14F01D
:10299A00000E146E14C010F0116A10501110D8A451
:1029AA00D9EF14F0DBEF14F0A0EF14F0E5EF14F018
:1029BA00000E0F6E010E0E6E084A092A1AEF15F064
:1029CA0008C0F6FF09C0F7FF0800F5500A6E0B6A47
:1029DA000B50000AD8B4F4EF14F01AEF15F00A50AD
:1029EA002B0AD8B4E1EF14F0060AD8B4DDEF14F0DC
:1029FA001AEF15F015C001F016C002F0000E046EB1
:102A0A000A0E036E26EC1CF008C0F6FF09C0F7FF99
:102A1A000800F550015E000E025A300E0124156EB0
:102A2A00000E0220166EE1EF14F0D00E0A6EFF0EB1
:102A3A000B6E08C0F6FF09C0F7FF0800F5500C6ED0
:102A4A000D6A0A500C260B500D220D500AE10A0E8F
:102A5A000C5CD8A033EF15F036EF15F0010E37EF06
:102A6A0015F0000E126E136A12501310D8A440EF1C
:102A7A0015F042EF15F0FFEF14F00E500F10D8A426
:102A8A0049EF15F04BEF15F059EF15F015C00AF0A4
:102A9A0016C00BF00A1E0B1E0A4A0B2A0AC008F0BF
:102AAA000BC009F05DEF15F015C008F016C009F06B
:102ABA001200033404340A6E0A50D8A467EF15F0E2
:102ACA0069EF15F073EF15F0000E016E000E026E3D
:102ADA00000E036E000E046EE0EF15F001C005F063
:102AEA0002C006F003C007F004C008F0200E83EF0E
:102AFA0015F0D8900832073206320532E82E7EEFFA
:102B0A0015F00550096E038EFF0E0116FF0E021610
:102B1A00FF0E0316000E0416960E0A5E0ABE9AEF00
:102B2A0015F098EF15F0B0EF15F00A50800A970FDC
:102B3A00D8B0A2EF15F0A4EF15F0A6EF15F069EFE3
:102B4A0015F0D89004320332023201320A3EA6EF5F
:102B5A0015F0C8EF15F01F0E0A64B6EF15F0B8EFBE
:102B6A0015F0C0EF15F069EF15F0D890013602366E
:102B7A00033604360A060A50D8A4C6EF15F0C8EF81
:102B8A0015F0BAEF15F00950D8B4CEEF15F0D0EF22
:102B9A0015F0D8EF15F0041E031E021E016C000E7C
:102BAA0002220322042201C001F002C002F003C083
:102BBA0003F004C004F01200000E1A14226E000E74
:102BCA001B14236E800E1C14246E7F0E1D14256E9A
:102BDA002250231024102510D8A4F6EF15F0F8EF90
:102BEA0015F000EF16F0000E1A6E000E1B6E000EA6
:102BFA001C6E000E1D6E000E1E14226E000E1F1497
:102C0A00236E800E2014246E7F0E2114256E22500E
:102C1A00231024102510D8A415EF16F017EF16F07C
:102C2A001FEF16F0000E1E6E000E1F6E000E206EB5
:102C3A00000E216E1DAE24EF16F026EF16F02FEFD0
:102C4A0016F01A6C1B1ED8B01B2A1C1ED8B01C2AE0
:102C5A00800E1D5621AE34EF16F036EF16F03FEF18
:102C6A0016F01E6C1F1ED8B01F2A201ED8B0202AAC
:102C7A00800E2156000E1A1A000E1B1A000E1C1A7C
:102C8A00800E1D1A000E1E1A000E1F1A000E201AA0
:102C9A00800E211A1E501A5C1F501B5820501C58B7
:102CAA0021501D58D8B05CEF16F05EEF16F061EFB8
:102CBA0016F0D89062EF16F0D8801200B0C00BF070
:102CCA00B1C00CF0B2C00DF0B3C00EF001C00BF0F1
:102CDA0002C00CF003C00DF004C00EF00BC005F0EA
:102CEA000CC006F00DC007F00EC008F0180E83EFF6
:102CFA0016F0D8900832073206320532E82E7EEFF7
:102D0A0016F00550096E0A6A09500A10D8A490EF05
:102D1A0016F092EF16F0B2EF16F0D8900B34056E5B
:102D2A000C34066E0D34076E0E34086E055006100C
:102D3A0007100810D8A4A4EF16F0A6EF16F0ACEF0F
:102D4A0016F0000E026E020E016EE1EF16F0000E92
:102D5A00026E030E016EE1EF16F009280A10D8A4DC
:102D6A00B9EF16F0BBEF16F0DDEF16F00BC005F069
:102D7A000CC006F00DC007F00EC008F0090ED8907E
:102D8A000536063607360836E82EC4EF16F0055023
:102D9A00061007100810D8B4D5EF16F0D8EF16F0C1
:102DAA00010ED9EF16F0000E016E026AE1EF16F07D
:102DBA00000E026E040E016E1200000E956E000ED9
:102DCA008C6E92680E0EC16E010EC26E110EC06E2E
:102DDA00DCEC19F05AEC1CF0020E046E010E14EC35
:102DEA001AF0010E056E080E066E9DEC19F0C282ED
:102DFA00C2B202EF17F004EF17F0FDEF16F0000E63
:102E0A00046E4D0E036EC450960DF3CF01F0F4CF4D
:102E1A0002F08EEC18F001C009F002C00AF0000EB0
:102E2A000ABEFF0E0B6E0C6E010EBCEC13F009C04D
:102E3A00A8F00AC0A9F00BC0AAF00CC0ABF0A40E0F
:102E4A00586E000E596E0E0E5A6E080E5B6EA8C0B2
:102E5A005CF0A9C05DF0AAC05EF0ABC05FF004EC04
:102E6A001BF0060E046E020E14EC1AF0A40E056E88
:102E7A00000E066E9DEC19F00C0E046E020E14EC98
:102E8A001AF0260E056E080E066E9DEC19F00B0E52
:102E9A000001A36F260EA26F5D0EE82EFED7A22FA9
:102EAA00FCD7A32FFAD700D000EF00F001C008F03A
:102EBA0002C009F003C00AF004C00BF00506D8A04E
:102ECA000606052806E10628D8A46EEF17F070EF6B
:102EDA0017F07DEF17F0000E026E000E016EC5EFBF
:102EEA0017F0084A092A0A4A0B2A0506D8A0060634
:102EFA0008C0D9FF09C0DAFFDF50D8B487EF17F04E
:102F0A0089EF17F0B4EF17F00AC0F6FF0BC0F7FF0E
:102F1A000800F5500009D8B495EF17F097EF17F0AD
:102F2A00B4EF17F005500610D8B49EEF17F0A0EFD3
:102F3A0017F0B4EF17F008C0D9FF09C0DAFFDF5065
:102F4A00076E0AC0F6FF0BC0F7FF0800F550071816
:102F5A00D8B4B2EF17F0B4EF17F076EF17F008C055
:102F6A00D9FF09C0DAFFDF50076E0AC0F6FF0BC0AF
:102F7A00F7FF0800F550075C016E026AD8A0020646
:102F8A00120003500410D8B4CDEF17F0CFEF17F0AA
:102F9A00D8EF17F003500410D8A4D6EF17F0D8EFE3
:102FAA0017F0DDEF17F0015061EC1CF02AEF18F072
:102FBA0020EE04F00350D9260450DA22DE50DE1047
:102FCA00D8B4EAEF17F0ECEF17F007EF18F020EE9D
:102FDA0004F00350D9260450DA2210EE02F003500E
:102FEA00E1260450E222DE50E65CE650800A096ED1
:102FFA00DE50800A0958D8B005EF18F007EF18F02C
:10300A002AEF18F020EE02F00350D9260450DA22F3
:10301A00DECF05F0DDCF06F003C0D9FF04C0DAFF2A
:10302A00DECF07F0DDCF08F005500724D96E065031
:10303A000820DA6E01C0DFFF20EE02F00350D92625
:10304A000450DA22DE2A000EDD2212000001BAA1A3
:10305A0031EF18F033EF18F03DEF18F013C00AF013
:10306A0014C00BF011C00CF012C00DF079EC1BF07B
:10307A0016BE42EF18F044EF18F04AEF18F015C0E8
:10308A001AF016C01BF04EEF18F0000E1B6E000E61
:10309A001A6E000E196E000E186E60EF18F0000E10
:1030AA00026E200E016E11C003F012C004F0C6ECCD
:1030BA0017F0184A192A1A50185C1950800A176E04
:1030CA001B50800A1758D8A06DEF18F06FEF18F050
:1030DA0054EF18F00001BAB175EF18F077EF18F055
:1030EA0081EF18F013C00AF014C00BF011C00CF0F5
:1030FA0012C00DF079EC1BF013C001F014C002F0FD
:10310A000BEC1CF01A500124116E1B500220126E97
:10311A001200000E066E04BE97EF18F095EF18F035
:10312A009DEF18F0036C041ED8B0042A010E066E37
:10313A0002BEA4EF18F0A2EF18F0AAEF18F0016C83
:10314A00021ED8B0022A010E061A000E086E000EE0
:10315A00076E03500410D8B4B5EF18F0B7EF18F0A3
:10316A00DFEF18F0010E056EBFEF18F0D8900336A6
:10317A000436052A04AEC4EF18F0C6EF18F0BBEF08
:10318A0018F0D890073608360350015C04500258EC
:10319A00D8A0D2EF18F0D4EF18F0D9EF18F00350F6
:1031AA00015E0450025A0780D89004320332052E79
:1031BA00C6EF18F00650D8B4E5EF18F0E7EF18F0AC
:1031CA00EBEF18F0076C081ED8B0082A07C001F008
:1031DA0008C002F01200000E066E02BEF9EF18F0E7
:1031EA00F7EF18F0FFEF18F0016C021ED8B0022AB0
:1031FA00010E066E04BE06EF19F004EF19F00AEF8D
:10320A0019F0036C041ED8B0042A03500410D8B471
:10321A0011EF19F013EF19F037EF19F0010E056EDF
:10322A001BEF19F0D89003360436052A04AE20EFB6
:10323A0019F022EF19F017EF19F00350015C04504E
:10324A000258D8A02BEF19F02DEF19F031EF19F031
:10325A000350015E0450025AD89004320332052EFC
:10326A0022EF19F00650D8B43DEF19F03FEF19F0EC
:10327A0043EF19F0016C021ED8B0022A01C001F016
:10328A0002C002F01200000E0114096E000E0214B0
:10329A000A6E800E03140B6E7F0E04140C6E095016
:1032AA000A100B100C10D8A45DEF19F05FEF19F09B
:1032BA0067EF19F0000E016E000E026E000E036E2B
:1032CA00000E046E000E0514096E000E06140A6E36
:1032DA00800E07140B6E7F0E08140C6E09500A102C
:1032EA000B100C10D8A47CEF19F07EEF19F086EFC2
:1032FA0019F0000E056E000E066E000E076E000E27
:10330A00086E055001180FE1065002180CE107502B
:10331A00031809E108500418D8B496EF19F098EF89
:10332A0019F09BEF19F0D8909CEF19F0D880120091
:10333A00000E0A6E000E096EBDEF19F00950052441
:10334A00076E0A500620086E07C0F6FF08C0F7FF8E
:10335A00F86A070EF76403D00800F55005D0F6CFD7
:10336A00E1FFF7CFE2FFE750EFEC1BF0094A0A2A28
:10337A0009500524076E0A500620086E07C0F6FF9A
:10338A0008C0F7FFF86A070EF76403D00800F55083
:10339A0005D0F6CFE1FFF7CFE2FFE7500009D8A446
:1033AA00D9EF19F0DBEF19F0A3EF19F01200000EB4
:1033BA00D6EC1AF0340E046EF20EE82EFED7042E66
:1033CA00FCD7030E4AEC1CF00D0E046EFC0EE82E20
:1033DA00FED7042EFCD7030E4AEC1CF01D0E046E19
:1033EA00910EE82EFED7042EFCD700F0030E4AEC0D
:1033FA001CF0020E4AEC1CF0020E4AEC1CF0080EFD
:10340A004AEC1CF0000E4AEC1CF00C0E4AEC1CF0C4
:10341A00000E4AEC1CF0060E4AEC1CF01200056E77
:10342A000504D8A41BEF1AF01DEF1AF02EEF1AF0BC
:10343A0004507F0F086E08380F0B066E08500F0BEA
:10344A00076E06504AEC1CF007504AEC1CF046EF97
:10345A001AF0020E0518D8A435EF1AF037EF1AF051
:10346A0046EF1AF00450BF0F086E08380F0B066EAD
:10347A0008500F0B076E06504AEC1CF007504AEC36
:10348A001CF0120052C056F053C057F0000E000153
:10349A00B56F000EB46F65EF1AF050C03AF051C024
:1034AA003BF0560E3C6E000E3D6E54C03EF055C0C9
:1034BA003FF0A1EC0CF03A500001B4273B50B52381
:1034CA0056C0F6FF57C0F7FF0800F5500009D8A408
:1034DA0071EF1AF073EF1AF052EF1AF0B4C050F00D
:1034EA00B5C051F01200BF0E096EFF0E0A6E07C07A
:1034FA000BF008C00CF009500B260A500C220C5095
:10350A000AE11A0E0B5CD8A08DEF1AF090EF1AF0B0
:10351A00010E91EF1AF0000E0D6E0E6A0D500E108C
:10352A00D8B49AEF1AF09CEF1AF0A3EF1AF0200E13
:10353A000710076E0850086EA7EF1AF007C007F0C9
:10354A0008C008F0120003C007F004C008F001C068
:10355A0009F002C00AF00750056E0850066E074AC5
:10356A00082A05C0F6FF06C0F7FFF86A09C0D9FFA6
:10357A000AC0DAFF094A0A2A070EF76403D00800CC
:10358A00F55005D0F6CFE1FFF7CFE2FFE750DF6E47
:10359A00DF50D8A4D3EF1AF0D5EF1AF0B0EF1AF033
:1035AA001200016E01A0DCEF1AF0DEEF1AF0E1EF73
:1035BA001AF08C80E2EF1AF08C9001A2E7EF1AF071
:1035CA00E9EF1AF0ECEF1AF08C82EDEF1AF08C9218
:1035DA0001A4F2EF1AF0F4EF1AF0F7EF1AF08C8464
:1035EA00F8EF1AF08C9401A6FDEF1AF0FFEF1AF02B
:1035FA0002EF1BF08C8603EF1BF08C9612005C0E18
:10360A0000019A6F000E9B6F58C09CF059C09DF044
:10361A00000E9F6F000E9E6F000EA16F000EA06F2E
:10362A009C0E506E000E516E5AC052F05BC053F0A1
:10363A009A0E546E000E556E47EC1AF000019E5118
:10364A005824D96E9F515920DA6E000EDF6E12008F
:10365A00010E076E200E01180210D8B437EF1BF0C6
:10366A0039EF1BF052EF1BF0F70E036EFF0E046EDC
:10367A0001C005F002C006F00350052604500622D8
:10368A00065009E1050E055CD8A04EEF1BF050EF7D
:10369A001BF052EF1BF0000E076E07C001F0026A22
:1036AA001200000E1E1A000E1F1A000E201A800E9B
:1036BA00211A1AC001F01BC002F01CC003F01DC081
:1036CA0004F01EC005F01FC006F020C007F021C09C
:1036DA0008F041EC0AF001C01AF002C01BF003C066
:1036EA001CF004C01DF01200000E106E000E0F6ECA
:1036FA008AEF1BF00EC001F0026A0CC003F00DC085
:10370A0004F0C6EC17F00F4A102A0F500A24D96E9B
:10371A0010500B20DA6EDF500E6E0E50D8A498EFC0
:10372A001BF09AEF1BF07FEF1BF01200BF0E036E27
:10373A00FF0E046E01C005F002C006F00350052614
:10374A000450062206500AE11A0E055CD8A0B0EF12
:10375A001BF0B3EF1BF0010EB4EF1BF0000E016E6D
:10376A00026A12000150021003100410D8B4C0EF0C
:10377A001BF0C2EF1BF0CAEF1BF0000E011A000E7D
:10378A00021A000E031A800E041A01C001F002C0C8
:10379A0002F003C003F004C004F01200D00E036E5E
:1037AA00FF0E046E01C005F002C006F003500526A4
:1037BA000450062206500AE10A0E055CD8A0E8EF7A
:1037CA001BF0EBEF1BF0010EECEF1BF0000E016E8D
:1037DA00026A1200046E04500F0B026E0450F00BC2
:1037EA00036E8C8A03380F0BD6EC1AF08C881A0EEB
:1037FA00E82EFED700D08C980250D6EC1AF08C88AE
:10380A001A0EE82EFED700D08C98120001C003F0E1
:10381A0002C004F013EF1CF0014A022A01C0D9FFCA
:10382A0002C0DAFFDF50D8A41DEF1CF01FEF1CF016
:10383A0011EF1CF00350015C016E04500258026E35
:10384A00120001500302F3CF05F0F4CF06F0015045
:10385A000402F350062602500302F350062605C05E
:10386A0001F006C002F0120001EE00F0500EEE6AFE
:10387A00E806FDE100EEACF0100EEE6AE806FDE1A6
:10388A00000EF86E0001E2EF16F0036E8C9A0350F8
:10389A00D6EC1AF08C880B0E026E620EE82EFED75A
:1038AA00022EFCD700D08C981200000E4AEC1CF0B5
:0A38BA00010E4AEC1CF0120012008F
:020000040020DA
:08000000FFFFFFFFFFFFFFFF00
:020000040030CA
:0E000000000C1F1EFF8181FF0FC00FE00F409C
:00000001FF
